:020000040800F2
:100000004807002089010008AF1700081D160008E6
:10001000AD17000865030008E71A0008000000009B
:10002000000000000000000000000000811A00082D
:10003000750300080000000055190008831A000825
:10004000A3010008A3010008A3010008A301000800
:10005000A3010008A3010008A3010008A3010008F0
:10006000A3010008A3010008A30100086903000818
:10007000A3010008A3010008A3010008A3010008D0
:10008000A3010008A3010008A3010008A3010008C0
:10009000A3010008A3010008A3010008A3010008B0
:1000A000A3010008A3010008A3010008A3010008A0
:1000B000A3010008A3010008A3010008A301000890
:1000C000A3010008A3010008A3010008A301000880
:1000D000A3010008A3010008A3010008A301000870
:1000E00077030008A3010008A301000800F002F84C
:1000F00000F03AF80AA090E8000C82448344AAF188
:100100000107DA4501D100F02FF8AFF2090EBAE885
:100110000F0013F0010F18BFFB1A43F0010318473B
:10012000A81A0000C81A0000103A24BF78C878C185
:10013000FAD8520724BF30C830C144BF04680C60ED
:10014000704700000023002400250026103A28BF35
:1001500078C1FBD8520728BF30C148BF0B60704739
:100160001FB51FBD10B510BD00F058F81146FFF7C0
:10017000F7FF01F0C9FC00F076F803B4FFF7F2FFD7
:1001800003BC00F07DF8000009488047094800479B
:10019000FEE7FEE7FEE7FEE7FEE7FEE7FEE7FEE737
:1001A000FEE7FEE704480549054A064B7047000094
:1001B000E51A0008ED00000848010020480700206B
:1001C00048030020480300204FF0000200B513460A
:1001D00094469646203922BFA0E80C50A0E80C5067
:1001E000B1F12001BFF4F7AF090728BFA0E80C5018
:1001F00048BF0CC05DF804EB890028BF40F8042B11
:1002000008BF704748BF20F8022B11F0804F18BF7D
:1002100000F8012B7047704770477047754600F033
:100220002BF8AE4605006946534620F00700854688
:1002300018B020B5FFF7B6FFBDE820404FF000062C
:100240004FF000074FF000084FF0000B21F00701BE
:10025000AC46ACE8C009ACE8C009ACE8C009ACE801
:10026000C0098D46704710B50446AFF300802046A4
:10027000BDE81040FFF781BF00487047E80000204C
:1002800001491820ABBEFEE72600020070470000BF
:1002900070B5044600688168C943C90717D18168F1
:1002A00021F00101816000F0CFFC05460AE000BFAB
:1002B00000F0CAFC401B022804D920688068C043B3
:1002C000C00706D020688068C043C007F0D0002077
:1002D00070BDA06A40F01000A062E06A40F001002A
:1002E000E062012070BD0000F8B5002604460096CB
:1002F00000688168C943C9072DD0816841F00101B8
:100300008160164816490068B0FBF1F000E0401E1D
:1003100000900028FBD100F097FC054616E000BFD6
:1003200000F092FC401B022810D920688068C0436E
:10033000C0070BD0A06A40F01000A062E06A40F055
:100340000100E06284F824600120F8BD2068806824
:10035000C043C007E4D10020F8BD00001800002011
:1003600040420F00FEE70000014800F07BBA0000A9
:100370004C00002070474FF4805000F05FBB72B615
:10038000FEE70000F8B50024009490F824202546EC
:10039000012A12D0012280F824204A681F23072A4C
:1003A0000DD20668776B521E02EB820293409F4388
:1003B0000B6893401F43776319E00220F8BD06687D
:1003C0000D2A0AD2376BD21F02EB820293409F4361
:1003D0000B6893401F43376309E0F76A0D3A02EB5D
:1003E000820293409F430B6893401F43F7620A6861
:1003F000072306680A2A0AD3F7680A3A02EB420280
:1004000093409F438B6893401F43F76008E0376930
:1004100002EB420293409F438B6893401F43376136
:100420000A68102A01D0112A20D1124B02689A4280
:1004300017D193681B0219D4936843F400039360A7
:100440000968102912D10C490C4A0968B1FBF2F174
:1004500001EB8101490000E0491E00910029FBD118
:1004600004E0816A41F020018162012480F8245077
:100470002046F8BD002401401800002040420F0033
:100480000068C06C704700002DE9F0414FF0000794
:1004900004003D467ED0A06A002628B9E66284F8B2
:1004A0002460204600F07EF82046FFF7F1FEA16AA6
:1004B000C90600D420B1A06A40F01000A06269E033
:1004C000A16A21F4885141F00201A1626268E169E8
:1004D000237B0A4347EA43010A43A1684FF480772C
:1004E000B94209D0012907D05FF0000194F814C087
:1004F000BCF1010F02D00AE03946F7E7F3B1A36A75
:1005000043F02003A362E36A43F00103E36223683C
:10051000D3F804C02CF4694C4CEA010CC3F804C0B5
:1005200021688B68DFF870C003EA0C0313438B600B
:10053000A168B9420BD0012909D00CE0DFF85CC0FA
:10054000A3690CEB43330B4343F40061DFE7218ADB
:100550000D05A5F580152168CB6A23F470032B43A4
:10056000CB62216889680E4B1940914208D1E6623E
:10057000A16A21F0020141F00101A162BDE8F08110
:10058000A06A20F0020040F01000A062E06A40F093
:100590000100E0620120F1E7FDF7E1FF00E0FFFF6D
:1005A000FE0E1FFF70B586B000250646009501952A
:1005B0000295039500681A4988422ED11949886925
:1005C00040F400708861886900F4007004908869C4
:1005D00040F0040088618869694600F004000490D6
:1005E00018200090032001900F4800F033FA104CBF
:1005F0000E48C4E900058020C4E902504000206193
:10060000800060612020C4E90605204600F0D4F98E
:1006100008B1FFF7B4FE3462666206B070BD000038
:100620000024014000100240000801400800024080
:100630004C0000202DE9F84300270D4604460097A2
:1006400000F002FB804620688168C90508D5A06AD1
:1006500040F02000A06284F824700120BDE8F883F7
:100660004168C90503D4C06A10F4700F2AD0022073
:1006700000F088FB3B490968B1FBF0F6206803698C
:1006800039490B424FEA61014FEAA1121FD1C368F9
:100690004FEA611C13EA0C0F19D103690B4225D1F3
:1006A000C068104222D1142023E0681C0AD02DB16A
:1006B00000F0CAFAA0EB0800A84203D9206800683D
:1006C000800725D5206800688007EED52DE00369F6
:1006D0000B4202D1C168114206D0026923490A4285
:1006E00006D1C068084203D1542002E0292000E06E
:1006F000FC204643009816E0681C11D02DB100F094
:10070000A3FAA0EB0800A8420AD90098B04207D289
:10071000A06A40F00400A06284F8247003209DE7E2
:100720000098401C0090B042E6D321686FF01200A0
:100730000860A06A40F40070A06220688068C0F37E
:10074000424007280CD1207B50B9A06A20F4807069
:10075000A062A06AC00403D4A06A40F00100A062B5
:1007600000207BE7180000202449922449922400AD
:1007700070B5044690F8240001280DD0012084F8BB
:1007800024002046FFF7B0FD02004FF0000005D026
:1007900084F82400104670BD022070BDA16A40F2AA
:1007A0000123994341F48071A1621F4D23681F49C1
:1007B000AB4218D10E6816F4702F14D0A66A46F416
:1007C0008016A6620E68760505D5A66A26F4005640
:1007D00046F48056A662A66AF6040AD5E66A26F0B2
:1007E0000606E66206E0A66A26F48016A6625E6841
:1007F000E9E7E06284F824006FF0020018602068E6
:100800008368C3F34243072B05D1A84208D1096886
:1008100011F4702F04D0816841F480118160B9E730
:10082000816841F4A001F9E7002801400424014057
:1008300010B5044690F82400012807D0012084F860
:1008400024002046FFF724FD10B107E0022010BD70
:10085000A16A21F4885141F00101A162002184F8CC
:10086000241010BD2DE9F05FC16B0C6801680B68A6
:10087000D0F840C0042202FA0CF2494DDFF824A15E
:10088000494E4A4FDFF828B1DFF828E122422CD048
:100890005A072AD50A68920603D40A6822F004028D
:1008A0000A600168A94201D1042219E0514501D131
:1008B000402215E0B14202D14FF4806210E0B9420B
:1008C00002D14FF480420BE0594502D14FF480220F
:1008D00006E0714502D14FF4800201E04FF08062E2
:1008E0002F4908394A60C16A3BE04FF0020808FA14
:1008F0000CF818EA040F4FF000094FF0010235D050
:100900005FEA837832D50B689B0605D40B6823F029
:100910000A030B6080F821200168A94201D102225C
:1009200019E0514501D1202215E0B14202D14FF426
:10093000007210E0B94202D14FF400520BE0594569
:1009400002D14FF4003206E0714502D14FF400129B
:1009500001E04FF00072124908394A6080F8209097
:10096000816A00291AD0BDE8F05F0847082505FA1A
:100970000CF5254212D01B0710D50B6823F00E038F
:100980000B6090F84010C36B02FA01F1596082636A
:1009900080F8212080F82090016BE2E7BDE8F09F0D
:1009A000080002401C0002403000024044000240A7
:1009B000580002406C00024030B528B308C8134903
:1009C00014221944B1FBF2F18900C163104981631B
:1009D000022141771A6843F6F0718A43D0E9001486
:1009E0002143D0E902452C43214304692143446952
:1009F000214384692143114319600021416301228D
:100A000042770177084630BD012030BDF8FFFDBFB9
:100A10000000024070B5044600F016F90546601C5F
:100A200002D004480078044400F00EF9401BA042B4
:100A3000FAD370BD0C00002070470000044910B5C7
:100A40000A68024202D00860FFF7F6FF10BD0000FE
:100A5000140401402DE9F84FDFF8B8910024A9F102
:100A6000040B23460F2709F1040AABF1040EC9E079
:100A70000125A5402A40AA427DD1674ED1F804C085
:100A8000ACEB0608B44532D014DCBCF1030F3AD00D
:100A900009DCBCF1000F2AD0BCF1010F1CD0BCF165
:100AA000020F31D11DE0BCF1110F17D0BCF1120FB4
:100AB0002AD119E0B8F5881F19D006DCB8F5803FB7
:100AC00015D0B8F5801F1FD111E0B8F5001F0ED06A
:100AD000B8F5041F18D10AE0CB6815E0CB681B1DE0
:100AE00012E0CB6808330FE0CB680C330CE08B6866
:100AF0002BB1012B4FF0080303D0456104E0042320
:100B000002E0056100E00023FF2A01D8064601E06B
:100B100000F104064FEA840501D9A5F12005D6F8B5
:100B2000008007FA05FC28EA0C0803FA05F548EAF4
:100B30000508C6F800804D68ED0062D5374DAE69F6
:100B400046F00106AE61AD6924F0030605F001052B
:100B50000095334D06EB050CDCF80850A607360F60
:100B600007FA06F825EA0805DFF8B880404503D102
:100B70004FF0000817E044E0DFF8AC80404502D1B8
:100B80004FF001080FE0DFF8A480404502D14FF09C
:100B9000020808E0DFF89880404502D14FF00308D2
:100BA00001E04FF0040808FA06F848EA0508CCF816
:100BB00008804D68D9F80060ED024D4601D5164316
:100BC00000E096432E604D68DAF80060AD025546AD
:100BD00001D5164300E096432E604D68DBF80060B7
:100BE000AD035D4601D5164300E096432E604D6887
:100BF000DEF80060ED03754601D5164300E096432C
:100C00002E60641C0D682A46E5407FF431AFBDE8D4
:100C1000F88F00000804014000001110001002408D
:100C20000000014000080140000C0140001001409C
:100C3000001401408068084000D0012070470AB1CC
:100C4000016170470904FBE70148806870470000B4
:100C50000C000020024881680278114481607047CE
:100C60000C000020074810B5016841F01001016038
:100C7000032000F075F80F2000F006F800F024F8CB
:100C8000002010BD0020024070B50D4D04464FF409
:100C90007A712878B1FBF0F00A490968B1FBF0F0ED
:100CA00000F0A8FC48B9102C07D200222146501EA3
:100CB00000F036F800206C6070BD012070BD0000AF
:100CC0000C000020180000200C4808B5816941F094
:100CD00001018161816901F001010091C16941F067
:100CE0008051C161C06900F08050009004484168A3
:100CF00021F0E06141F00071416008BD0010024048
:100D000000000140002809DB00F01F020121914092
:100D10004009800000F1E020C0F800117047000099
:100D2000F0B40E4B1B680C46C3F30223C3F1070556
:100D3000042D00D90425191D072901D2002300E044
:100D4000DB1E012606FA05F1491E214099409E400E
:100D5000761E16403143F0BC00F0C6BE0CED00E03C
:100D6000064900F0070208684FF6FF03184040EA02
:100D70000220034A10430860704700000CED00E0B9
:100D80000000FA0510B501460020234C012922D0AD
:100D9000022939D010291DD161682268D20119D5E4
:100DA0001E48C1F38342C903805C0AD561681B4AAF
:100DB000C1F34041921E515C194AB2FBF1F1484324
:100DC00001E0184948436168490203D44000032107
:100DD000B0FBF1F010BD226AC2F30121012903D159
:100DE000920701D5C80310BD022905D1626A920796
:100DF00002D549F6404010BD0329FCD12168890382
:100E0000F9D54FF2244010BD00F0A4F86168C1F399
:100E10008131491C4900DBE700100240A01B00089B
:100E200000127A0000093D002DE9F0470F46050049
:100E300061D0434E306800F00700B84209D23068F4
:100E400020F0070038433060306800F00700B842F7
:100E500051D128683B4C810712D5400703D5606803
:100E600040F4E06060602878000703D5606840F4D3
:100E7000605060606068A96820F0F000084360601E
:100E80002878C00728D06868012810D02168022877
:100E900010D0890700292EDA616821F0030101438F
:100EA0006160FFF7D1FE804641F288390DE021688C
:100EB0008903EFE78901EDE7FFF7C6FEA0EB080124
:100EC000494502D90320BDE8F0876068696800F0F1
:100ED0000C00B0EB810FEFD1306800F00700B84292
:100EE0000BD9306820F0070038433060306800F0DC
:100EF0000700B84201D00120E5E72878400705D572
:100F00006068E96820F4E0600843606028780007C2
:100F100006D56068296920F4605040EAC10060602D
:100F200000F028F86168084AC1F30311515CC84019
:100F30000649086006480068FFF7A6FE0020C2E7E1
:100F40000020024000100240B01B000818000020E2
:100F5000100000200448054900684968044AC1F3AC
:100F6000C221515CC84070471800002000100240A8
:100F7000C01B00080E4A51680E4801F00C03042BF8
:100F800011D0082B0FD10C48C1F38343C903C05CB7
:100F90000AD55168084AC1F34041921E515C054A86
:100FA0005043B0FBF1F070470449484370470000DC
:100FB0000010024000127A008E1B000800093D005C
:100FC0002DE9F84F040070D02078C04DC00749D0FB
:100FD0006868C0F38100012807D06868C0F3810009
:100FE000022809D16868C00306D52868800339D56E
:100FF00060680028E7D035E06068B0F5803F0BD02E
:1010000010B1B0F5A02F11D0286820F480302860EE
:10101000286820F4802002E0286840F480302860AE
:10102000606890B1FFF710FE06460AE0286840F4B9
:1010300080202860F0E700BFFFF706FE801B6428D1
:1010400073D828688003F7D50CE0FFF7FDFD06464E
:1010500005E000BFFFF7F8FD801B6428F0D8286882
:101060008003F7D420789A4E80074FF001094FF0A3
:10107000000839D5686810F00C0F07D06868C0F315
:101080008100022809D16868C00306D42868800757
:1010900014D52069012808D110E02069B0B1C6F844
:1010A0000090FFF7D1FD074605E00AE1FFF7CCFD10
:1010B000C01B0228C4D828688007F7D52868616952
:1010C00020F0F80040EAC10028600DE0C6F800807A
:1010D000FFF7BAFD074604E0FFF7B6FDC01B022884
:1010E00023D828688007F7D4207800072CD57948C2
:1010F000A169D9B1C0F80090FFF7A6FD074604E04A
:10110000FFF7A2FDC01B02280FD8686A8007F7D539
:1011100071484FF4FA510068B0FBF1F0009000BF45
:101120000098411E0091FAD20EE080E0C0F80080E5
:10113000FFF78AFD074604E0FFF786FDC01B022883
:1011400075D8686A8007F7D42078400760D5E869C9
:101150000027C00008D4E86940F08050E861E869E1
:10116000012700F0805000905C480168C90513D445
:101170000168834641F480710160FFF765FD824696
:1011800006E000BFFFF760FDA0EB0A0064284ED820
:10119000DBF80000C005F5D5E06801280AD008B1E9
:1011A000052813D0286A20F001002862286A20F060
:1011B000040002E0286A40F001002862E06841F281
:1011C000883B98B1FFF740FD82460BE0286A40F06B
:1011D00004002862EEE700BFFFF736FDA0EB0A012E
:1011E00059455AD8286A8007F6D50CE0FFF72CFD40
:1011F000824605E0FFF728FDA0EB0A0159454CD8CF
:10120000286A8007F6D41FB1E86920F08050E861B1
:10121000E06988B36968C1F38101022944D00228DA
:10122000C6F8608004D0FFF70FFD044638E034E0D4
:10123000FFF70AFD074604E0FFF706FDC01B022882
:101240002BD828688001F7D4206AB0F5803F05D1FB
:101250006868A16820F4003008436860D4E9080198
:101260000843696821F4741108436860C6F8609007
:10127000FFF7EAFC044606E025E000BFFFF7E4FCC8
:10128000001B022809D828688001F7D51BE000BFA1
:10129000FFF7DAFC001B022802D90320BDE8F88F13
:1012A00028688001F4D40EE00128F7D06868226A2B
:1012B00000F48031914204D1616A00F470108842D8
:1012C00001D00120EAE70020E8E70000001002401A
:1012D000000042428004424218000020007000409A
:1012E00070B5040009D0606A002540B125616561D0
:1012F000A56294F8510040B10CE0012070BD606817
:10130000B0F5827FF4D0E561F2E784F850502046D2
:1013100000F040F8022084F851002068016821F0B4
:1013200040010160A088218900F4827001F4044129
:101330000843A18901F400610843217C01F0020106
:101340000843217D01F001010843218B01F4007164
:101350000843217F01F03801084394F8201001F080
:1013600080010843218D01F4005108432168086081
:10137000A069042101EA1040216848602068C16921
:1013800021F40061C1616565012084F851000020ED
:1013900070BD000030B585B0002400940194029423
:1013A000039400681449884223D11448816941F4A8
:1013B00080518161816901F480510491816941F01A
:1013C0000401816180690E4D00F004000490A020AA
:1013D0000090022001900320039069462846FFF701
:1013E00039FB4020CDE90004694628460294FFF706
:1013F00031FB05B030BD000000300140001002405C
:10140000000801402DE9FF4F81B01D469346044678
:101410004FF001090E9EFFF717FC074694F85100A4
:101420006168012806D0B1F5827F3CD1A168C9BBB3
:10143000042838D10298002871D0BBF1000FFBD0EE
:10144000002DF9D094F8500001282CD04FF0010A5B
:1014500084F850A094F85100042802D0052084F8A4
:1014600051004FF00008C4F85480C4F838B0E58744
:10147000A58702992163E586A586C4F84080C4F853
:10148000448020680168490603D4016841F04001A6
:101490000160E068B0F5006F606808D0F0B3012D1E
:1014A00049D081E0FFE7022005B0BDE8F08F08B128
:1014B000012D39D1206B21680088C860206B801C09
:1014C0002063E08E401EE0862EE020688168890758
:1014D0000FD5E18E69B1B9F1010F0AD1216B0988ED
:1014E000C160206B801C2063E08E401EE0864FF0C0
:1014F000000920688168C9070CD0E18F51B1C0682C
:10150000A16B0880A06B801CA063E08F401EE08769
:101510004FF00109FFF798FBC01B01E00BE067E00B
:10152000B04201D3701C50D1E08E0028CDD1E08FA5
:101530000028CAD13EE0206B216800780873206B38
:10154000401C2063E08E401EE0862DE0206881680C
:1015500089070FD5E18E69B1B9F1010F0AD1216B6D
:1015600009780173206B401C2063E08E401EE086EA
:101570004FF0000920688168C9070CD0E18F51B194
:10158000C068A16B0870A06B401CA063E08F401E78
:10159000E0874FF00109FFF757FBC01BB04202D3B1
:1015A000701C01D011E086B1E08E0028CED1E08F12
:1015B0000028CBD13A463146204600F0EBF950B135
:1015C0002020606584F8508012E084F851A084F8EF
:1015D0005080032068E7A06818B92068C168806857
:1015E000009084F851A084F85080606D0028F1D0FC
:1015F000012059E710B5401EB0F1807F01D30120D2
:1016000010BD4FF0E02460610F21601700F06CFA0C
:101610000020A06107202061002010BDFEE700002F
:10162000FEB5002417480094019415490294016006
:1016300089158160012505730475022606614FF442
:1016400060214460C161FEF71FFF08B1FEF797FEFD
:101650000320CDE90005694602940A48FEF792FE90
:1016600008B1FEF78CFE0420CDE900066946054866
:10167000FEF788FE002801D0FEF781FEFEBD0000C7
:10168000002401401C000020F0B585B00024304843
:101690000094019402940394816941F010018161E6
:1016A000816901F010010491816941F0200181619B
:1016B000816901F020010491816941F00401816197
:1016C000816901F004010491816941F0080181619F
:1016D0008069204E00F008004FF40055049000226D
:1016E00029463046FFF7ABFA1B4F0122032138464B
:1016F000FFF7A5FA0220CDE90240009501256946D1
:1017000001953046FFF7A6F904208DE831006946BF
:101710001248FFF79FF90320CDE90005CDE902400B
:1017200069463846FFF796F9280300900C48CDE942
:10173000010569463846FFF78DF900221146282039
:10174000FFF7EEFA2820FFF7DDFA05B0F0BD000044
:101750000010024000100140000C01400008014050
:1017600000001110104810B50E4901604FF482714D
:10177000416000218160C1604FF400720161C0E9E5
:1017800005121822C0E90721416281620A21C16263
:10179000FFF7A6FD002803D0BDE81040FEF7EFBD1F
:1017A00010BD00000030014090000020FEE7FEE781
:1017B0001CB51FA1204CD1E90001CDE90001002298
:1017C00001212046FFF73BFA012202212046FFF7C4
:1017D00036FA0520FFF71EF90E21002000F0A0F8D0
:1017E0000121084600F09CF80121022000F098F841
:1017F0002F21042000F094F85021052000F090F8EB
:101800002621062000F08CF86946102000F06AF8C6
:1018100069460A2000F066F800F010F8012211462F
:101820002046FFF70CFA0220FFF7F4F81CBD000079
:1018300057484C3031000000000C014010B5084CF6
:10184000002202212046FFF7FAF9E12000F00AF811
:1018500020460122BDE810400221FFF7F0B9000048
:10186000000C014001B582B04FF0FF300090012321
:1018700001AA02A90248FFF7C5FD9DF804000EBDAC
:10188000900000202DE9F041154D0E46074600223C
:1018900001212846FFF7D3F9002202212846FFF74D
:1018A000CEF9A020FFF7DEFF002403E0385DFFF74C
:1018B000D9FF641CB442F9DB012202212846FFF75C
:1018C000BEF9012211462846FFF7B9F90120FFF7BA
:1018D000A1F82846BDE8F04100220121FFF7AFB989
:1018E000000C014070B50D4E0D4604460022022149
:1018F0003046FFF7A4F944F02000FFF7B3FF0024BF
:10190000285DFFF7AFFF641C052CF9DB3046BDE80E
:10191000704001220221FFF792B90000000C014043
:1019200070B50B4D0E460446002202212846FFF7F3
:1019300086F944F02000FFF795FF3046FFF792FF4D
:101940002846BDE8704001220221FFF778B9000067
:10195000000C0140704700003EB569460090012030
:101960000190052002900A48FEF70CFD0848FEF79A
:10197000FFFE4FF0FF310648FEF75CFE0448FEF71D
:101980007FFD84B20248FEF753FF20463EBD0000B3
:101990001C000020F8B515460E460B460092044682
:1019A0000122022100F010F840B9334600228021C4
:1019B0002046009500F008F8002804D0606D40F043
:1019C000200060650320F8BD2DE9F8431E469146CE
:1019D00088460446089DFFF737F9401B351AFFF784
:1019E00033F9074625480068C0F3CB30684338E038
:1019F000701C37D0FFF728F9C01BA84203D215B1DD
:101A0000009860B32CE02068416821F0E00141605B
:101A10006068B0F5827F0BD1A068B0F5004F02D0AE
:101A2000B0F5806F04D12068016821F040010160A9
:101A3000A06AB0F5005F09D12068016821F4005167
:101A400001602068016841F400510160012084F8C0
:101A50005100002084F850000320BDE8F8830025E1
:101A6000401E00902068816838EA010004D00021FF
:101A70004945BDD10020F0E70121F9E71800002019
:101A80007047FFF7E7B830B58FB028216846FEF7FA
:101A90009BFB14210AA8FEF797FB01210804CDE95E
:101AA00000100024029402250491CDE907504FF460
:101AB000E01009906846FFF783FA08B172B6FEE7B6
:101AC0000F20CDE90A054FF48060CDE90C400221DA
:101AD0000AA80E94FFF7A8F9002801D072B6FEE715
:101AE0000FB030BD7047FEE70907090E002804DB80
:101AF00000F1E02080F80014704700F00F0000F1C2
:101B0000E02080F8141D7047FFF7ACF8FFF7BBFF2B
:101B1000FFF7BAFDFFF726FEFFF782FDFFF748FE4D
:101B2000DFF86080184C0320FFF716FF07B204208F
:101B3000FFF712FF06B204214046FFF77BF8B4F925
:101B400002100546791A00200931122900D9012016
:101B5000B4F90410711A0931122903D821788D4281
:101B600000D150B108480621801D078046800571CC
:101B7000FFF788FE6780A68025701420FEF74AFFD5
:101B8000D1E700000008014000000020010202032C
:101B90000405060708090A0B0C0D0E0F10100102B0
:101BA00002030405060708090A0B0C0D0E0F10109E
:101BB00000000000000000000102030406070809FD
:101BC0000000000001020304E81B000800000020E0
:101BD0001C00000028010008041C00081C00002054
:101BE0002C070000440100080100FFFFFFFF000078
:101BF00000000000010000001000000000000000D4
:041C000000127A0054
:04000005080000ED02
:00000001FF
