:020000040800F2
:100000001807002089010008511300086911000831
:10001000051300088F02000899180008000000006E
:100020000000000000000000000000004116000871
:100030009102000800000000C914000843160008DF
:10004000A3010008A3010008A3010008A301000800
:10005000A3010008A3010008A3010008A3010008F0
:10006000A3010008A3010008A3010008A3010008E0
:10007000A3010008A3010008A3010008A3010008D0
:10008000A3010008A3010008A3010008A3010008C0
:10009000A3010008A3010008A3010008A3010008B0
:1000A000A3010008A3010008A3010008A3010008A0
:1000B000A3010008A3010008A3010008A301000890
:1000C000A3010008A3010008A3010008A301000880
:1000D000A3010008A3010008A3010008A301000870
:1000E00093020008A3010008A301000800F002F831
:1000F00000F03AF80AA090E8000C82448344AAF188
:100100000107DA4501D100F02FF8AFF2090EBAE885
:100110000F0013F0010F18BFFB1A43F0010318473B
:10012000141C0000341C0000103A24BF78C878C1A9
:10013000FAD8520724BF30C830C144BF04680C60ED
:10014000704700000023002400250026103A28BF35
:1001500078C1FBD8520728BF30C148BF0B60704739
:100160001FB51FBD10B510BD00F058F81146FFF7C0
:10017000F7FF01F0A3FB00F076F803B4FFF7F2FFFE
:1001800003BC00F07DF8000009488047094800479B
:10019000FEE7FEE7FEE7FEE7FEE7FEE7FEE7FEE737
:1001A000FEE7FEE704480549054A064B7047000094
:1001B000BF160008ED0000081801002018070020F5
:1001C00018030020180300204FF0000200B513466A
:1001D00094469646203922BFA0E80C50A0E80C5067
:1001E000B1F12001BFF4F7AF090728BFA0E80C5018
:1001F00048BF0CC05DF804EB890028BF40F8042B11
:1002000008BF704748BF20F8022B11F0804F18BF7D
:1002100000F8012B7047704770477047754600F033
:100220002BF8AE4605006946534620F00700854688
:1002300018B020B5FFF7B6FFBDE820404FF000062C
:100240004FF000074FF000084FF0000B21F00701BE
:10025000AC46ACE8C009ACE8C009ACE8C009ACE801
:10026000C0098D46704710B50446AFF300802046A4
:10027000BDE81040FFF781BF00487047B80000207C
:1002800001491820ABBEFEE7260002007047FEE7DA
:1002900070474FF4805000F017B872B6FEE70000C8
:1002A00070B5044600F016F90546601C02D00448FB
:1002B0000078044400F00EF9401BA042FAD370BD50
:1002C0000800002070470000044910B50A68024287
:1002D00002D00860FFF7F6FF10BD000014040140D3
:1002E0002DE9F84FDFF8B8910024A9F1040B23465B
:1002F0000F2709F1040AABF1040EC9E00125A5405E
:100300002A40AA427DD1674ED1F804C0ACEB060862
:10031000B44532D014DCBCF1030F3AD009DCBCF197
:10032000000F2AD0BCF1010F1CD0BCF1020F31D15B
:100330001DE0BCF1110F17D0BCF1120F2AD119E04A
:10034000B8F5881F19D006DCB8F5803F15D0B8F590
:10035000801F1FD111E0B8F5001F0ED0B8F5041FA3
:1003600018D10AE0CB6815E0CB681B1D12E0CB6802
:1003700008330FE0CB680C330CE08B682BB1012BFA
:100380004FF0080303D0456104E0042302E0056157
:1003900000E00023FF2A01D8064601E000F1040630
:1003A0004FEA840501D9A5F12005D6F8008007FAA7
:1003B00005FC28EA0C0803FA05F548EA0508C6F822
:1003C00000804D68ED0062D5374DAE6946F00106FC
:1003D000AE61AD6924F0030605F001050095334DCB
:1003E00006EB050CDCF80850A607360F07FA06F8EE
:1003F00025EA0805DFF8B880404503D14FF0000832
:1004000017E044E0DFF8AC80404502D14FF001082E
:100410000FE0DFF8A480404502D14FF0020808E069
:10042000DFF89880404502D14FF0030801E04FF01B
:10043000040808FA06F848EA0508CCF808804D6870
:10044000D9F80060ED024D4601D5164300E0964311
:100450002E604D68DAF80060AD02554601D51643AE
:1004600000E096432E604D68DBF80060AD035D460A
:1004700001D5164300E096432E604D68DEF800601B
:10048000ED03754601D5164300E096432E60641CCB
:100490000D682A46E5407FF431AFBDE8F88F0000D3
:1004A000080401400000111000100240000001404B
:1004B00000080140000C0140001001400014014000
:1004C0008068084000D0012070470AB10161704780
:1004D0000904FBE70148806870470000080000201D
:1004E000024881680278114481607047080000204A
:1004F000074810B5016841F010010160032000F0C9
:1005000075F80F2000F006F800F024F8002010BD68
:100510000020024070B50D4D04464FF47A712878E2
:10052000B1FBF0F00A490968B1FBF0F000F0BCFC47
:1005300048B9102C07D200222146501E00F036F890
:1005400000206C6070BD012070BD0000080000201C
:10055000140000200C4808B5816941F00101816157
:10056000816901F001010091C16941F08051C161CF
:10057000C06900F0805000900448416821F0E061BB
:1005800041F00071416008BD0010024000000140D0
:10059000002809DB00F01F02012191404009800082
:1005A00000F1E020C0F8001170470000F0B40E4BDD
:1005B0001B680C46C3F30223C3F10705042D00D9C1
:1005C0000425191D072901D2002300E0DB1E0126A6
:1005D00006FA05F1491E214099409E40761E1640BC
:1005E0003143F0BC01F059B90CED00E0064900F0D0
:1005F000070208684FF6FF03184040EA0220034A4A
:1006000010430860704700000CED00E00000FA05A0
:100610002DE9F84305460078354CC00754D0E06911
:100620000026C00008D4E06940F08050E061E06935
:10063000012600F0805000902E480168C90512D4B0
:100640000168804641F480710160FFF743FF07466F
:1006500005E000BFFFF73EFFC01B642823D8D8F891
:100660000000C005F6D5206A10F4407021D0A9889A
:1006700001F4407181421CD0206A1F49012220F4FC
:1006800040700A6000220A602062C00711D0FFF7A4
:1006900021FF074641F2883808E000BFFFF71AFF44
:1006A000C11B414502D90320BDE8F883206A8007B9
:1006B000F4D5206A696820F44070084320621EB1B6
:1006C000E06920F08050E0612878800705D56068F7
:1006D000A96820F44040084360602878C00605D52A
:1006E0006068E96820F48000084360600020DBE770
:1006F0000010024000700040400442422DE9F047E3
:100700000F46050061D0434E306800F00700B84244
:1007100009D2306820F0070038433060306800F0BC
:100720000700B84251D128683B4C810712D54007D9
:1007300003D5606840F4E06060602878000703D566
:10074000606840F4605060606068A96820F0F00064
:10075000084360602878C00728D06868012810D056
:100760002168022810D0890700292EDA616821F05B
:10077000030101436160FFF7ADFE804641F2883915
:100780000DE021688903EFE78901EDE7FFF7A2FE9D
:10079000A0EB0801494502D90320BDE8F087606855
:1007A000696800F00C00B0EB810FEFD1306800F009
:1007B0000700B8420BD9306820F00700384330609A
:1007C000306800F00700B84201D00120E5E7287842
:1007D000400705D56068E96820F4E0600843606080
:1007E0002878000706D56068296920F4605040EA3F
:1007F000C100606000F018F86168084AC1F3031195
:10080000515CC8400649086006480068FFF782FE50
:100810000020C2E70020024000100240221D000814
:10082000140000200C0000200E4A51680E4801F010
:100830000C03042B11D0082B0FD10C48C1F38343B8
:10084000C903C05C0AD55168084AC1F34041921EF1
:10085000515C054A5043B0FBF1F0704704494843EE
:10086000704700000010024000127A00121D0008BC
:1008700000093D002DE9F84F040070D02078C04DEC
:10088000C00749D06868C0F38100012807D06868B4
:10089000C0F38100022809D16868C00306D5286822
:1008A000800339D560680028E7D035E06068B0F58E
:1008B000803F0BD010B1B0F5A02F11D0286820F4E4
:1008C00080302860286820F4802002E0286840F406
:1008D00080302860606890B1FFF7FCFD06460AE0B2
:1008E000286840F480202860F0E700BFFFF7F2FDA1
:1008F000801B642873D828688003F7D50CE0FFF7C5
:10090000E9FD064605E000BFFFF7E4FD801B642813
:10091000F0D828688003F7D420789A4E80074FF0EB
:1009200001094FF0000839D5686810F00C0F07D0A6
:100930006868C0F38100022809D16868C00306D442
:100940002868800714D52069012808D110E02069A3
:10095000B0B1C6F80090FFF7BDFD074605E00AE11B
:10096000FFF7B8FDC01B0228C4D828688007F7D558
:100970002868616920F0F80040EAC10028600DE0B5
:10098000C6F80080FFF7A6FD074604E0FFF7A2FDCA
:10099000C01B022823D828688007F7D420780007D6
:1009A0002CD57948A169D9B1C0F80090FFF792FD24
:1009B000074604E0FFF78EFDC01B02280FD8686AC7
:1009C0008007F7D571484FF4FA510068B0FBF1F099
:1009D000009000BF0098411E0091FAD20EE080E026
:1009E000C0F80080FFF776FD074604E0FFF772FDD0
:1009F000C01B022875D8686A8007F7D420784007A2
:100A000060D5E8690027C00008D4E86940F080504C
:100A1000E861E869012700F0805000905C480168B7
:100A2000C90513D40168834641F480710160FFF762
:100A300051FD824606E000BFFFF74CFDA0EB0A0027
:100A400064284ED8DBF80000C005F5D5E068012821
:100A50000AD008B1052813D0286A20F001002862C6
:100A6000286A20F0040002E0286A40F001002862B1
:100A7000E06841F2883B98B1FFF72CFD82460BE01D
:100A8000286A40F004002862EEE700BFFFF722FD6D
:100A9000A0EB0A0159455AD8286A8007F6D50CE020
:100AA000FFF718FD824605E0FFF714FDA0EB0A01F1
:100AB00059454CD8286A8007F6D41FB1E86920F060
:100AC0008050E861E06988B36968C1F38101022957
:100AD00044D00228C6F8608004D0FFF7FBFC04462F
:100AE00038E034E0FFF7F6FC074604E0FFF7F2FCDD
:100AF000C01B02282BD828688001F7D4206AB0F5E3
:100B0000803F05D16868A16820F400300843686020
:100B1000D4E908010843696821F474110843686046
:100B2000C6F86090FFF7D6FC044606E025E000BF5B
:100B3000FFF7D0FC001B022809D828688001F7D5F0
:100B40001BE000BFFFF7C6FC001B022802D90320F0
:100B5000BDE8F88F28688001F4D40EE00128F7D0B2
:100B60006868226A00F48031914204D1616A00F41D
:100B70007010884201D00120EAE70020E8E7000079
:100B80000010024000004242800442421400002053
:100B90000070004070B5040009D0606A002540B1C3
:100BA00025616561A56294F8510040B10CE0012017
:100BB00070BD6068B0F5827FF4D0E561F2E784F83B
:100BC0005050204600F040F8022084F85100206880
:100BD000016821F040010160A088218900F4827041
:100BE00001F404410843A18901F400610843217C18
:100BF00001F002010843217D01F001010843218B2E
:100C000001F400710843217F01F03801084394F892
:100C1000201001F080010843218D01F400510843A8
:100C200021680860A069042101EA10402168486039
:100C30002068C16921F40061C1616565012084F803
:100C40005100002070BD000030B585B00024009434
:100C500001940294039400681449884223D11448F3
:100C6000816941F480518161816901F4805104916D
:100C7000816941F00401816180690E4D00F004003A
:100C80000490A02000900220019003200390694668
:100C90002846FFF725FB4020CDE900046946284699
:100CA0000294FFF71DFB05B030BD0000003001408D
:100CB00000100240000801402DE9FF4F81B01D46A1
:100CC000934604464FF001090E9EFFF703FC0746CA
:100CD00094F851006168012806D0B1F5827F3CD1BB
:100CE000A168C9BB042838D10298002871D0BBF193
:100CF000000FFBD0002DF9D094F8500001282CD023
:100D00004FF0010A84F850A094F85100042802D052
:100D1000052084F851004FF00008C4F85480C4F84E
:100D200038B0E587A58702992163E586A586C4F8D2
:100D30004080C4F8448020680168490603D40168F3
:100D400041F040010160E068B0F5006F606808D0D4
:100D5000F0B3012D49D081E0FFE7022005B0BDE8E6
:100D6000F08F08B1012D39D1206B21680088C8604F
:100D7000206B801C2063E08E401EE0862EE0206801
:100D8000816889070FD5E18E69B1B9F1010F0AD1E8
:100D9000216B0988C160206B801C2063E08E401E9F
:100DA000E0864FF0000920688168C9070CD0E18F08
:100DB00051B1C068A16B0880A06B801CA063E08F5C
:100DC000401EE0874FF00109FFF784FBC01B01E0E4
:100DD0000BE067E0B04201D3701C50D1E08E0028D8
:100DE000CDD1E08F0028CAD13EE0206B2168007889
:100DF0000873206B401C2063E08E401EE0862DE0CF
:100E00002068816889070FD5E18E69B1B9F1010FBA
:100E10000AD1216B09780173206B401C2063E08E9E
:100E2000401EE0864FF0000920688168C9070CD099
:100E3000E18F51B1C068A16B0870A06B401CA0632A
:100E4000E08F401EE0874FF00109FFF743FBC01B16
:100E5000B04202D3701C01D011E086B1E08E0028B0
:100E6000CED1E08F0028CBD13A463146204600F063
:100E700071FB50B12020606584F8508012E084F846
:100E800051A084F85080032068E7A06818B9206852
:100E9000C1688068009084F851A084F85080606D2B
:100EA0000028F1D0012059E710B5401EB0F1807F35
:100EB00001D3012010BD4FF0E02460610F216017C5
:100EC00000F0EBFC0020A06107202061002010BD95
:100ED00070B590F83C20012A26D0012480F83C40CF
:100EE000022280F83D2003685A689D6822F070064F
:100EF0000A6832435A600D4B02689A4208D0B2F138
:100F0000804F05D00A4B9A4202D00A4B9A4204D134
:100F1000496825F080031943916080F83D40002125
:100F200080F83C10084670BD022070BD002C0140C6
:100F3000000400400008004000B585B00021009189
:100F40000191029103910068B0F1804F11D10A48DC
:100F5000816941F0040181618069694600F0040003
:100F60000490032000900220019003900348FFF7B3
:100F7000B7F905B000BD00000010024000080140B4
:100F800070B5044690F83C0000260D4601280FD0AD
:100F9000012084F83C006AB1042A1DD0082A2FD011
:100FA0000C2A3FD00126002084F83C00304670BD5A
:100FB000022070BD206800F0CDFB2068816941F0FF
:100FC000080181612068816921F004018161206844
:100FD00081692A69114311E0206800F0E3FB206871
:100FE000816941F4006181612068816921F4806137
:100FF0008161206881692A6941EA02218161D2E721
:10100000206800F0FBFB2068C16941F00801C16164
:101010002068C16921F00401C1612068C1692A69A1
:10102000114311E0206800F015FC2068C16941F40B
:101030000061C1612068C16921F48061C1612068DB
:10104000C1692A6941EA0221C161ACE710B5040017
:1010500003D094F83D0010B107E0012010BD00203E
:1010600084F83C00204600F01FF8022084F83D0080
:10107000211D206800F024FB012084F8460084F83C
:101080003E0084F83F0084F8400084F8410084F872
:10109000420084F8430084F8440084F8450084F852
:1010A0003D00002010BD000008B50068B0F1804F81
:1010B00008D10548C16941F00101C161C06900F072
:1010C0000100009008BD00000010024010B5044669
:1010D000022249B104290ED0082913D094F8410006
:1010E000012816D0012010BD94F83E000128F9D146
:1010F00084F83E200FE094F83F000128F2D184F8F4
:101100003F2008E094F840000128EBD184F840200B
:1011100001E084F841200122206800F00DFB0F4916
:101120002068884203D1426C42F400424264206845
:10113000884208D0B0F1804F05D00949884202D0DA
:101140000849884204D1816801F00701062903D0CB
:10115000016841F001010160002010BD002C014038
:101160000004004000080040FEE70000F0B585B034
:1011700000242F480094019402940394816941F063
:1011800010018161816901F010010491816941F0D0
:1011900020018161816901F020010491816941F0A0
:1011A00004018161816901F004010491816941F0C8
:1011B0000801816180691F4E00F008004FF400555E
:1011C0000490002229463046FFF77FF91A4F00228B
:1011D00001213846FFF779F9012202213846FFF74D
:1011E00074F90220CDE90240009501256946019578
:1011F0003046FFF775F80320CDE90005CDE9024040
:1012000069463846FFF76CF8280300900B48CDE993
:10121000010569463846FFF763F800221146282089
:10122000FFF7C4F92820FFF7B3F905B0F0BD0000BF
:101230000010024000100140000C0140000011109D
:10124000104810B50E4901604FF4827141600021D1
:101250008160C1604FF400720161C0E9051218227B
:10126000C0E90721416281620A21C162FFF792FC55
:10127000002803D0BDE81040FFF70FB810BD0000F4
:10128000003001401800002010B58AB000240794F7
:101290001C2168460894FEF797FF19484FF08041DB
:1012A000C0E900144FF6FF71C0E902410461846196
:1012B000FFF7CCFE08B1FEF7F0FF079407A910482E
:1012C0000894FFF705FE08B1FEF7E7FF6020CDE9BF
:1012D000000402940022694609480494FFF750FE76
:1012E00008B1FEF7DAFF042269460548FFF748FE19
:1012F00008B1FEF7D2FF0248FFF71EFE0AB010BD8C
:1013000070000020FEE7000010B500224FF480714D
:101310000C48FFF7DAF80C4C002210212046FFF7AA
:10132000D4F8002208212046FFF7CFF8002204213C
:101330002046FFF7CAF8054900200A68506309688B
:10134000886310BD000C01400008014070000020BF
:10135000FEE7000070B5094D002202212846FFF784
:10136000B4F8072000F068F804460122022128465C
:10137000FFF7ABF804F0400070BD0000000C014026
:101380001CB51AA11B4CD1E90001CDE900010022D6
:1013900001212046FFF799F8012202212046FFF79C
:1013A00094F80520FEF77CFF0F21002000F072F872
:1013B0000121084600F06EF80121022000F06AF8D1
:1013C0005021052000F066F82621062000F062F882
:1013D0000621112000F05EF869460A2000F03CF872
:1013E000012211462046FFF770F81CBD57484C30CB
:1013F00031000000000C01402DE9F0410D4F0D4679
:101400000646002202213846FFF75FF8612000F00F
:1014100013F8002404E0FF2000F00EF83055641C9F
:10142000AC42F8DB3846BDE8F04101220221FFF76B
:101430004CB80000000C014001B582B04FF0FF3005
:101440000090012301AA02A90248FFF735FC9DF88C
:1014500004000EBD1800002070B50D4E0D46044668
:10146000002202213046FFF730F844F02000FFF759
:10147000E3FF0024285DFFF7DFFF641C052CF9DB88
:101480003046BDE8704001220221FFF71EB800007F
:10149000000C014070B50B4D0E460446002202219F
:1014A0002846FFF712F844F02000FFF7C5FF30464A
:1014B000FFF7C2FF2846BDE8704001220221FFF776
:1014C00004B80000000C0140704700002DE9F04115
:1014D0001E4D4FF40064002221462846FEF7F5FF1A
:1014E0000120FEF7DDFE012221462846FEF7EDFF32
:1014F0000120FEF7D5FE002221462846FEF7E5FF33
:1015000000242E1531462846FEF7DAFF0028F9D0D0
:101510004FF4967731462846FEF7D2FF48B10120B6
:10152000641CFEF7BDFEBC42F4D940F2E730BDE8D2
:10153000F081204600F0DBFA4FF03332044B00F02C
:10154000E9FABDE8F04100F0A5BA0000000C014046
:101550003333FB3FF8B515460E460B460092044662
:101560000122022100F010F840B933460022802108
:101570002046009500F008F8002804D0606D40F087
:10158000200060650320F8BD2DE9F8431E46914612
:1015900088460446089DFEF79DFF401B351AFEF75E
:1015A00099FF074625480068C0F3CB30684338E010
:1015B000701C37D0FEF78EFFC01BA84203D215B1B6
:1015C000009860B32CE02068416821F0E0014160A0
:1015D0006068B0F5827F0BD1A068B0F5004F02D0F3
:1015E000B0F5806F04D12068016821F040010160EE
:1015F000A06AB0F5005F09D12068016821F40051AC
:1016000001602068016841F400510160012084F804
:101610005100002084F850000320BDE8F883002525
:10162000401E00902068816838EA010004D0002143
:101630004945BDD10020F0E70121F9E71400002061
:101640007047FEF74DBF30B593B028216846FEF7CE
:10165000BBFD14210AA8FEF7B7FD002501200F9558
:1016600010951195010412958DE8230004904FF414
:10167000E010CDE90810022407946846FFF7FAF855
:1016800008B172B6FEE70AA90F2081E831004FF4D5
:101690008060CDE90D0502210AA8FFF72FF808B1F7
:1016A00072B6FEE74FF4004011900F940FA8FEF7BA
:1016B000AFFF002801D072B6FEE713B030BD70470F
:1016C000F0B50268194B1A4C1A4D4FF080479842FA
:1016D00005D0B84203D0A04201D0A84203D122F0E5
:1016E00070064A683243984205D0B84203D0A042FF
:1016F00001D0A84203D122F44074CA6822434C6945
:1017000022F08002224302608A68C2620A68826212
:10171000984201D109690163012141610169C90749
:1017200003D0016921F001010161F0BD002C0140ED
:10173000000400400008004010B501F01F03012123
:10174000046A99408C430462016A9A401143016221
:1017500010BD000030B5036A026A22F00102026285
:101760004268846924F073050C682C4323F0020559
:101770008B682B430A4DA8420BD123F00805CB6898
:1017800022F440722B434D6923F0040315438A6908
:101790002A434260846149684163036230BD0000AE
:1017A000002C014030B5026A036A23F01003036283
:1017B000436884690D6824F4E64444EA05248D688E
:1017C00022F0200242EA05120B4DA8420ED1CD684C
:1017D00022F0800242EA05124D6923F4406343EA95
:1017E00085038D6922F0400243EA850343608461EA
:1017F00049688163026230BD002C014030B5036A44
:10180000026A22F4807202624268C46923F400739F
:1018100024F073050C682C438D6843EA05230C4DB6
:10182000A8420ED1CD6823F4006343EA05234D6935
:1018300022F4405242EA05128D6923F4806342EAA1
:1018400005124260C4614968C163036230BD000093
:10185000002C014030B5046A026A22F48052026210
:101860004268C3690D6823F4E64343EA05238D68A3
:1018700024F4005444EA0534064DA84204D14D69CD
:1018800022F4804242EA85124260C36149680164E1
:10189000046230BD002C0140FEE70907090E002854
:1018A00004DB00F1E02080F80014704700F00F0026
:1018B00000F1E02080F8141D70470000FEF718FECC
:1018C000FFF7C1FEFFF752FCFFF7BAFCFFF7DCFCA5
:1018D00000216C48FFF7FAFB04216A48FFF7F6FB8A
:1018E000FFF74EFDFFF710FDFEF7F4FD4FF47A769B
:1018F00005464FF4487A77104FF4167BDFF8848161
:10190000FEF7E8FD401BB84203D900BFFFF7FCFC1F
:10191000F6E7FFF71FFD0028F2D006215A48FFF72F
:101920006BFDFEF7D7FD58490546B1F90220B1F924
:101930000090B2F5FA7001D4014600E041424FF444
:101940007A735943CB1701EB5351CC12B44200DDEB
:101950003446002801DB014600E04142642944DCB2
:10196000B9F5FA7101D40B4600E04B42642B3CDD23
:10197000002900DA49424FF448704143C81701EB8F
:101980005050C412544500DD5446B94512DD0122C1
:1019900011023E48FEF799FDDFF8F4900022102175
:1019A0004846FEF792FD002208214846FEF78DFDCD
:1019B000012212E000224FF480713448FEF785FDC9
:1019C000DFF8CC90012210214846FEF77EFD01226F
:1019D00008214846FEF779FD002204214846FEF71B
:1019E00074FDD8F800104C6347E0002800DA40424C
:1019F00064288BDD5A4514DDFFF768FD142885D374
:101A0000012211022148FEF760FD0022102120482A
:101A1000FEF75BFD012208211D48FEF756FD00225E
:101A200013E0B2F5C87F14DA00224FF48071174832
:101A3000FEF74BFD012210211548FEF746FD00225E
:101A400008211348FEF741FD012204211048FEF74A
:101A50003CFD2046D94502DDA0F1C80404E0B9F5FB
:101A6000C87F01DAA4F1C800002800DA0020002CA9
:101A700000DA0024D8F800205063D8F8000084630E
:101A80003EE700007000002000000020000C014034
:101A9000000801404FEA1153A3F58063D3F11E0300
:101AA000A8BFD3F1200C08DB4FF0004242EAC1226C
:101AB00052EA505232FA03F0704709420BD4102B0D
:101AC000C4BF0020704703F5787CBCF1FF3F05D010
:101AD0004FF0FF3070474FF00000704770B500F0D6
:101AE000C3F800BF4992248000207047F0E7B0FAA5
:101AF00080F310FA03F10AD0C3F11D0303F58063EC
:101B00004FEA41504FEA035202EBD12170474FF0A8
:101B100000007047DFF848C170B51CEA111E1EBFF7
:101B20001CEA13159EEA0C0F95EA0C0F00F06F806B
:101B300081EA030423EA4C134EEAD47E21EA4C11D5
:101B400041F4801143F48013AE44A1FB024CA0FB8E
:101B50000365AEF17F7E361955EB0C05A1FB034CF6
:101B60004CF10003A0FB021C16EB0C06654153F17F
:101B70000003094218BF46F0010613F4007F0BD1A1
:101B80004FEA03314FEA0530340341EA155140EA88
:101B900016506FF003020AE04FEAC3214FEAC52056
:101BA000F40241EA555140EA56506FF0020202EB4E
:101BB0002E4201EB025585EACE710AD05FEA440C51
:101BC00018BF24F0004450F1000041F1000120EA68
:101BD000D47040F2FE7C624500D270BDA84214BFB2
:101BE0004FF080444FF04044002E08BF0024BEF167
:101BF000806FA8BFA1F1C041BDE8704080F2828033
:101C00004FF0000001F1C04101F0004170479EEA31
:101C10000C0F0CEA131518BF95EA0C0F06D04FF005
:101C2000000081EA030E0EF0004170BD00F01CF8C8
:101C30008900013E00F007B800F009B84FEA430CF4
:101C40005FEA5C5C08D081EA030100F05BB84FEA10
:101C5000410C5FEA5C5CF6D14FF00000014970472F
:101C60000000FF070000F87F0EF1020E2EF0030EB9
:101C70005EF8046B364205D4012A43EB030515F5E3
:101C8000001F12D8012841EB010C1CF5001F0CD8D5
:101C90000ED14FEAD17C15F5001F0CEB4C0C0CF16A
:101CA000020C08BF4CEBD37C04E04FF0080C01E0C1
:101CB0004FEAD37C0CEB4C0526FA05F606F0070636
:101CC000B6F1040C06D20EEB860CBDE870404CF069
:101CD000010C6047DFE80CF0090B02024FF00041F5
:101CE0004FF00000A1F5002170BD194610460128F3
:101CF00051EB010418BFD4F5001484BF002001F09B
:101D0000004170BD0808A0F500114FEA310170478D
:101D1000010202030405060708090A0B0C0D0E0F49
:101D2000101000000000000000000102030406077C
:101D300008090000541D00080000002018000000E1
:101D4000280100086C1D0008180000200007000092
:101D50004401000800000000000000000100000035
:0C1D6000100000000000000000127A00DB
:04000005080000ED02
:00000001FF
